{
  "_format": "hh-sol-artifact-1",
  "contractName": "Member",
  "sourceName": "contracts/Member.sol",
  "abi": [
    {
      "inputs": [],
      "stateMutability": "nonpayable",
      "type": "constructor"
    },
    {
      "anonymous": false,
      "inputs": [
        {
          "indexed": false,
          "internalType": "address",
          "name": "_newMember",
          "type": "address"
        }
      ],
      "name": "NewMember_Added",
      "type": "event"
    },
    {
      "inputs": [],
      "name": "addNewMember",
      "outputs": [],
      "stateMutability": "nonpayable",
      "type": "function"
    },
    {
      "inputs": [
        {
          "internalType": "uint256",
          "name": "",
          "type": "uint256"
        }
      ],
      "name": "membersProposal",
      "outputs": [
        {
          "internalType": "address",
          "name": "",
          "type": "address"
        }
      ],
      "stateMutability": "view",
      "type": "function"
    }
  ],
  "bytecode": "0x60806040526000805534801561001457600080fd5b506000805490806100248361002e565b9190505550610057565b600060001982141561005057634e487b7160e01b600052601160045260246000fd5b5060010190565b60c9806100656000396000f3fe6080604052348015600f57600080fd5b506004361060325760003560e01c8063672d1b2e1460375780637b60160b146079575b600080fd5b605d6042366004607b565b6001602052600090815260409020546001600160a01b031681565b6040516001600160a01b03909116815260200160405180910390f35b005b600060208284031215608c57600080fd5b503591905056fea26469706673582212207a2e2d3b16a51d6a9fbb7204ca702d78590b6256e3fe27859bf47766f3a65bc864736f6c63430008090033",
  "linkReferences": {},
  "deployedLinkReferences": {}
}