{
  "_format": "hh-sol-artifact-1",
  "contractName": "SHG",
  "sourceName": "contracts/SHG.sol",
  "abi": [
    {
      "inputs": [
        {
          "internalType": "string",
          "name": "_name",
          "type": "string"
        }
      ],
      "stateMutability": "payable",
      "type": "constructor"
    },
    {
      "anonymous": false,
      "inputs": [
        {
          "indexed": false,
          "internalType": "address",
          "name": "_member",
          "type": "address"
        },
        {
          "indexed": false,
          "internalType": "uint256",
          "name": "_amount",
          "type": "uint256"
        }
      ],
      "name": "Withdraw",
      "type": "event"
    },
    {
      "stateMutability": "payable",
      "type": "fallback"
    },
    {
      "inputs": [
        {
          "internalType": "uint256",
          "name": "_proposalId",
          "type": "uint256"
        }
      ],
      "name": "approveBorrowProposal",
      "outputs": [
        {
          "internalType": "bool",
          "name": "",
          "type": "bool"
        }
      ],
      "stateMutability": "nonpayable",
      "type": "function"
    },
    {
      "inputs": [
        {
          "internalType": "address",
          "name": "",
          "type": "address"
        }
      ],
      "name": "balances",
      "outputs": [
        {
          "internalType": "uint256",
          "name": "",
          "type": "uint256"
        }
      ],
      "stateMutability": "view",
      "type": "function"
    },
    {
      "inputs": [],
      "name": "deposit",
      "outputs": [],
      "stateMutability": "payable",
      "type": "function"
    },
    {
      "inputs": [],
      "name": "join",
      "outputs": [
        {
          "internalType": "bool",
          "name": "",
          "type": "bool"
        }
      ],
      "stateMutability": "nonpayable",
      "type": "function"
    },
    {
      "inputs": [
        {
          "internalType": "uint256",
          "name": "_amount",
          "type": "uint256"
        }
      ],
      "name": "submitLoanProposal",
      "outputs": [
        {
          "internalType": "uint256",
          "name": "",
          "type": "uint256"
        }
      ],
      "stateMutability": "nonpayable",
      "type": "function"
    },
    {
      "inputs": [
        {
          "internalType": "uint256",
          "name": "_amount",
          "type": "uint256"
        }
      ],
      "name": "withdrawAmount",
      "outputs": [],
      "stateMutability": "nonpayable",
      "type": "function"
    },
    {
      "stateMutability": "payable",
      "type": "receive"
    }
  ],
  "bytecode": "0x60806040526040516107ad3803806107ad8339810160408190526100229161013b565b60008054600181810183557f290decd9548b62a8d60345a988386fc84ba6bc95484008f6362f93160ef3e56390910180546001600160a01b031916339081179091558252602090815260409091203490558151610085916006919084019061008c565b5050610245565b8280546100989061020a565b90600052602060002090601f0160209004810192826100ba5760008555610100565b82601f106100d357805160ff1916838001178555610100565b82800160010185558215610100579182015b828111156101005782518255916020019190600101906100e5565b5061010c929150610110565b5090565b5b8082111561010c5760008155600101610111565b634e487b7160e01b600052604160045260246000fd5b6000602080838503121561014e57600080fd5b82516001600160401b038082111561016557600080fd5b818501915085601f83011261017957600080fd5b81518181111561018b5761018b610125565b604051601f8201601f19908116603f011681019083821181831017156101b3576101b3610125565b8160405282815288868487010111156101cb57600080fd5b600093505b828410156101ed57848401860151818501870152928501926101d0565b828411156101fe5760008684830101525b98975050505050505050565b600181811c9082168061021e57607f821691505b6020821081141561023f57634e487b7160e01b600052602260045260246000fd5b50919050565b610559806102546000396000f3fe6080604052600436106100595760003560e01c80630562b9f7146100a357806327e235e3146100c55780636190410514610105578063a9be8dbf14610125578063b688a36314610187578063d0e30db0146101dd57610084565b3661008457336000908152600160205260408120805434929061007d9084906104ab565b9091555050005b336000908152600160205260408120805434929061007d9084906104ab565b3480156100af57600080fd5b506100c36100be3660046104c3565b6101e5565b005b3480156100d157600080fd5b506100f26100e03660046104dc565b60016020526000908152604090205481565b6040519081526020015b60405180910390f35b34801561011157600080fd5b506100f26101203660046104c3565b610356565b34801561013157600080fd5b506101776101403660046104c3565b60009081526002602090815260408220600301805460018181018355918452919092200180546001600160a01b0319163317905590565b60405190151581526020016100fc565b34801561019357600080fd5b5061017760048054600181810183556000929092527f8a35acfbc15ff81a39ae7d344fd709f28e8600b4aa8c65c6b64bfe7fe36bd19b0180546001600160a01b0319163317905590565b6100c36103f5565b336000908152600160205260409020548111156102675760405162461bcd60e51b815260206004820152603560248201527f556e73756666696369656e742062616c616e63652c20506c6561736520637265604482015274185d19481848189bdc9c9bddc81c1c9bdc1bdcd85b605a1b60648201526084015b60405180910390fd5b3360009081526001602052604090205461028290829061050c565b3360008181526001602052604080822093909355915183908381818185875af1925050503d80600081146102d2576040519150601f19603f3d011682016040523d82523d6000602084013e6102d7565b606091505b50509050806103195760405162461bcd60e51b815260206004820152600e60248201526d1c185e5b595b9d0819985a5b195960921b604482015260640161025e565b60408051338152602081018490527f884edad9ce6fa2440d8a54cc123490eb96d2768479d49ff9c7366125a9424364910160405180910390a15050565b600060016005600082825461036b91906104ab565b909155505060408051608081018252838152336020808301918252600554838501818152606080860181815260009384526002808652979093208651815594516001860180546001600160a01b0319166001600160a01b039092169190911790559051958401959095555180516103e8926003850192019061041b565b5050600554949350505050565b33600090815260016020526040812080543492906104149084906104ab565b9091555050565b828054828255906000526020600020908101928215610470579160200282015b8281111561047057825182546001600160a01b0319166001600160a01b0390911617825560209092019160019091019061043b565b5061047c929150610480565b5090565b5b8082111561047c5760008155600101610481565b634e487b7160e01b600052601160045260246000fd5b600082198211156104be576104be610495565b500190565b6000602082840312156104d557600080fd5b5035919050565b6000602082840312156104ee57600080fd5b81356001600160a01b038116811461050557600080fd5b9392505050565b60008282101561051e5761051e610495565b50039056fea264697066735822122007b6f6d77c98ca57a7bb8f5dee40d0b2be98f5e5dd691c9fe0363b87c8ab6ffa64736f6c63430008090033",
  "linkReferences": {},
  "deployedLinkReferences": {}
}